:100000000C9480000C94A8000C94A8000C94A800F8
:100010000C94A8000C94A8000C94A8000C94A800C0
:100020000C94A8000C94A8000C94A8000C94A800B0
:100030000C94A8000C94A8000C94A8000C94A800A0
:100040000C94FF030C94A8000C94A8000C94A80036
:100050000C94A8000C94A8000C94A8000C94A80080
:100060000C94F7060C94A8004A0B5F0B5F0B5E0B19
:100070005F0B3C0B5F0B5F0B5F0B3E0B5F0B5F0B74
:10008000510B5C0B5A0B5F0B5F0B5F0B580B31393D
:100090003A31383A3332004A616E203235203230FC
:1000A00032310000000000240027002A0000000078
:1000B00000250028002B0000000000230026002956
:1000C0000004040404040404040202020202020301
:1000D000030303030301020408102040800102040B
:1000E000081020010204081020000000080002018E
:1000F0000000030407000000000000000000B50D30
:1001000011241FBECFEFD8E0DEBFCDBF23E0A4E4B3
:10011000B1E001C01D92A63BB207E1F711E0A0E0FB
:10012000B1E0E0E2FDE102C005900D92A434B10718
:10013000D9F710E0C0E8D0E004C02197FE010E948A
:100140007C0ECF37D107C9F70E942F0A0C948E0E70
:100150000C94000080E991E00895FC019081905397
:100160009A3008F090E0818180532AE0929F800DC0
:10017000112408950F931F93CF93DF93209145018E
:100180002F5F322F37703093450120FF02C020E8E7
:1001900001C020E031FD2064347009F02062205F4E
:1001A000FC01EC01239600E011E06485662331F048
:1001B00070E0C8010E94460E6F5F01C060E0618779
:1001C000322F369F030E30E0311D1124311102C051
:1001D000168202C031503683662311F06150618768
:1001E0003196CE17DF0709F7DF91CF911F910F915D
:1001F0000895579A0895EF92FF920F931F93CF930C
:10020000DF93CDB7DEB762970FB6F894DEBF0FBEAF
:10021000CDBF7C01DC011C968C917A8369835C8361
:100220004B835E834D830D871E872F87813029F492
:10023000CE0101960E94BA0006C01C861B861A8653
:10024000198618861F8283E0888B1A8A198AD7013B
:10025000ED91FC910484F585E02DBE016F5F7F4F29
:10026000C701099562960FB6F894DEBF0FBECDBFE9
:10027000DF91CF911F910F91FF90EF900895EF9232
:10028000FF920F931F93CF93DF93CDB7DEB76297A3
:100290000FB6F894DEBF0FBECDBF7C01DC011C960B
:1002A0008C917A8369835C834B835E834D830D8756
:1002B0001E872F87813029F4CE0101960E94BA0053
:1002C00006C01C861B861A86198618861F82188A05
:1002D0001A8A198AD701ED91FC910484F585E02DE5
:1002E000BE016F5F7F4FC701099562960FB6F89404
:1002F000DEBF0FBECDBFDF91CF911F910F91FF9059
:10030000EF9008950F931F93CF93DF9300D01F9228
:10031000CDB7DEB7AB0119821A821B82DC01ED91E9
:10032000FC910190F081E02D00E010E020E0BE01A2
:100330006F5F7F4F09950F900F900F90DF91CF91D6
:100340001F910F910895FC0185859685089580E0A1
:1003500090E008954F925F926F927F928F92AF924A
:10036000BF92CF92DF92EF920F931F93CF93DF93C1
:100370003C01EB010E942508F30127853089621BAF
:10038000730B6A307105B0F3F894E881F9817BB1A1
:1003900070686BB16F776BB9CA848F812C2D281B65
:1003A000822F2F83BF844A805B801D850C85DE846D
:1003B0001F5F0F5FD3949E813885A984EB844181B0
:1003C000D20120E0C32F522F322F3181442788944D
:1003D0003111380F08F43FEF8195889410FD430FD9
:1003E0004795889411FD430F4795889412FD430F5C
:1003F0004795889413FD430F4795889414FD430F48
:100400004795889415FD430F4795889416FD430F33
:100410004795889417FD430F47958894232F111112
:10042000242F8C0D422F002C7BB900C047FF6BB9E5
:1004300030812227889400C000C0002C6BB9311194
:10044000390F00C0002C7BB900C046FF6BB908F41F
:100450003FEF9195889400C000C0002C6BB900FD5F
:10046000230F00C0002C7BB900C045FF6BB9279556
:10047000889401FD230F00C000C0002C6BB92795A4
:10048000889400C0002C7BB900C044FF6BB902FD0A
:10049000230F2795889400C000C0002C6BB903FD82
:1004A000230F00C0002C7BB900C043FF6BB9279518
:1004B000889404FD230F00C000C0002C6BB9279561
:1004C000889400C0002C7BB900C042FF6BB905FDC9
:1004D000230F2795889400C000C0002C6BB906FD3F
:1004E000230F00C0002C7BB900C041FF6BB92795DA
:1004F000889407FD230F00C000C0002C6BB927951E
:10050000889400C0002C7BB900C040FF6BB9432F1A
:100510000111422F9A0D00C000C0002C6BB900C021
:1005200000C0002C7BB900C047FF6BB93281222785
:10053000889400C000C0002C6BB931113C0F00C082
:10054000002C7BB900C046FF6BB908F43FEFEB0D00
:10055000F11D00C000C0002C6BB9D0FC230F00C0FF
:10056000002C7BB900C045FF6BB927958894D1FC5E
:10057000230F00C000C0002C6BB92795889400C0E1
:10058000002C7BB900C044FF6BB9D2FC230F279528
:10059000889400C000C0002C6BB9D3FC230F00C0AE
:1005A000002C7BB900C043FF6BB927958894D4FC1D
:1005B000230F00C000C0002C6BB92795889400C0A1
:1005C000002C7BB900C042FF6BB9D5FC230F2795E7
:1005D000889400C000C0002C6BB9D6FC230F00C06B
:1005E000002C7BB900C041FF6BB927958894D7FCDC
:1005F000230F00C000C0002C6BB92795889400C061
:10060000002C7BB900C040FF6BB9432FD110422FA3
:10061000C19500C000C0002C6BB9CE0D00C000C059
:100620007BB900C047FF6BB931812227889400C095
:1006300000C0002C6BB93111380F00C0002C7BB901
:1006400000C046FF6BB908F43FEF8195889400C065
:1006500000C0002C6BB910FD230F00C0002C7BB92B
:1006600000C045FF6BB92795889411FD230F00C08A
:1006700000C0002C6BB92795889400C0002C7BB972
:1006800000C044FF6BB912FD230F2795889400C06A
:1006900000C0002C6BB913FD230F00C0002C7BB9E8
:1006A00000C043FF6BB92795889414FD230F00C049
:1006B00000C0002C6BB92795889400C0002C7BB932
:1006C00000C042FF6BB915FD230F2795889400C029
:1006D00000C0002C6BB916FD230F00C0002C7BB9A5
:1006E00000C041FF6BB92795889417FD230F00C008
:1006F00000C0002C6BB92795889400C0002C7BB9F2
:1007000000C040FF6BB9432F1111422F8C0D00C068
:1007100000C0002C6BB9119709F086CE20EE31E0B5
:10072000D2010E94820EDC01CB01F4E0B695A795C0
:1007300097958795FA95D1F720E030E0B901EAE97D
:100740004E9E040C611D5E9E600D711D1124650D91
:10075000711D860F971FA11DB11D893E43E09407AF
:10076000A105B10508F434C0885E9340A109B10920
:1007700042E0B695A795979587954A95D1F747E0BA
:10078000849F080E211D949F200D311D1124290FD7
:10079000311D6091440170E0860F971F820F931FF7
:1007A0004091D6025091D7026091D8027091D9023F
:1007B000292F3327420F531F611D711D4093D6020D
:1007C0005093D7026093D8027093D902809344016A
:1007D00078940E942508F301708B6787DF91CF9191
:1007E0001F910F91EF90DF90CF90BF90AF908F90BF
:1007F0007F906F905F904F9008950E94890E1F9296
:100800000F920FB60F9211242F933F938F939F93C4
:10081000AF93BF938091D6029091D702A091D80256
:10082000B091D9023091D50223E0230F2D3720F467
:100830000196A11DB11D05C026E8230F0296A11D3A
:10084000B11D2093D5028093D6029093D702A09336
:10085000D802B093D9028091DA029091DB02A09184
:10086000DC02B091DD020196A11DB11D8093DA0278
:100870009093DB02A093DC02B093DD02BF91AF91B5
:100880009F918F913F912F910F900FBE0F901F90CE
:10089000189580911703909118038230910538F0D4
:1008A000880F991F880F991F05970197F1F70895F1
:1008B000CF92DF92EF92FF920F931F93CF93DF932C
:1008C0006C017A018B01C0E0D0E0CE15DF0581F02C
:1008D000D8016D918D01D601ED91FC910190F081CF
:1008E000E02DC6010995892B11F02196EECF7E01EE
:1008F000C701DF91CF911F910F91FF90EF90DF9093
:10090000CF90089540914703262F30E0240F311DEA
:1009100021323105DCF4209190032430C9F4FC012C
:1009200080E090E0861758F4309147032191DC0174
:10093000A95DBC4FA30FB11D2C930196F3CF8091FD
:100940004703680F6093470380E0089581E00895AE
:1009500082E00895089508950895E091E30280915A
:10096000E202E81730F4F0E0EC51FD4F808190E0B6
:1009700008958FEF9FEF08959091E3028091E20236
:10098000981750F4E92FF0E0EC51FD4F208130E052
:100990009F5F9093E30202C02FEF3FEFC9010895DC
:1009A0008091E20290E02091E302821B9109089578
:1009B000CF92DF92EF92FF920F931F93CF93DF932B
:1009C0007C01CB018A0120910403222389F0EB01F1
:1009D0006B01C40ED51ECC15DD0569F06991D701F8
:1009E000ED91FC910190F081E02DC7010995F3CFC5
:1009F000642F0E948204C801DF91CF911F910F9153
:100A0000FF90EF90DF90CF900895CF93DF931F92E8
:100A1000CDB7DEB76983209104032223D1F0209162
:100A20000703203240F021E030E0FC0133832283D1
:100A300080E090E015C080910503E82FF0E0EA56D1
:100A4000FC4F998190838F5F809305038093070308
:100A500005C061E0CE0101960E94820481E090E031
:100A60000F90DF91CF910895089580E090E0089570
:100A7000833081F028F4813099F08230A1F008951C
:100A80008730A9F08830B9F08430D1F480918000AB
:100A90008F7D03C0809180008F77809380000895C0
:100AA00084B58F7702C084B58F7D84BD0895809111
:100AB000B0008F7703C08091B0008F7D8093B0002D
:100AC00008951F93CF93DF93282F30E0F901E7516A
:100AD000FF4F8491F901EB52FF4FD491F901EF538D
:100AE000FF4FC491CC23C1F0162F81110E9438050D
:100AF000EC2FF0E0EE0FFF1FE355FF4FA591B491EF
:100B00009FB7F894111104C08C91D095D82302C0DE
:100B1000EC91DE2BDC939FBFDF91CF911F91089565
:100B2000CF93DF9390E0FC01EB52FF4F2491FC0147
:100B3000EF53FF4F8491882361F190E0880F991F54
:100B4000FC01ED55FF4FC591D491FC01E355FF4FDA
:100B5000A591B491611109C09FB7F894888120953F
:100B600082238883EC912E230BC0623061F49FB7FF
:100B7000F8948881322F309583238883EC912E2B33
:100B80002C939FBF06C08FB7F894E8812E2B288343
:100B90008FBFDF91CF910895CF93DF93C4E1D3E06E
:100BA00061E089810E9490050E94490460E088818B
:100BB0000E9490050E94490460E089810E9490058E
:100BC000DF91CF910C944904CF93DF93D82FC8E0E5
:100BD00061E0809114030E9490050E944904D0FFB7
:100BE00002C060E001C061E0809115030E949005A1
:100BF0000E94490460E0809114030E9490050E94C5
:100C00004904D695C15021F761E0809114030E94F8
:100C1000900560E0809115030E9490050E944904B0
:100C200060E0809114030E9490050E944904209185
:100C3000150330E0F901E751FF4F8491F901EB52C0
:100C4000FF4FD491F901EF53FF4FC491CC2399F09A
:100C500081110E943805EC2FF0E0EE0FFF1FE954E0
:100C6000FF4FA591B491EC91ED23C1E009F4C0E0F0
:100C7000C11107C001C0C0E061E0809115030E946E
:100C800090050E94490461E0809114030E94900540
:100C90000E9449048C2F8170DF91CF91089561E00B
:100CA000809115030E9490050C9449040F931F93A3
:100CB000CF93DF938C010E944F0680E40E94E405ED
:100CC0000E94CC050E944F0680EC0E94E405E801DA
:100CD0000C5F1F4F89910E94E405C017D107D1F71F
:100CE0000E94CC050E944F06809116038F70805899
:100CF0000E94E405DF91CF911F910F910C94CC05D8
:100D00001092900381E080938F0310926A0361E058
:100D100082E10E94610561E083E10E946105E9EBE7
:100D2000F0E080818E7F808380818D7F808388E466
:100D30008093B80085E48093BC000895CF93DF933F
:100D400091E0909326038823B9F0C091B800D09128
:100D5000BA008091BC008A7B8093BC0060E082E195
:100D60000E94610560E083E10E9461050E948006A7
:100D7000D093BA00C093B800DF91CF91089585ED6C
:100D80008093BC008091920390919303A09194036F
:100D9000B09195030796A11DB11D23E0B695A795C7
:100DA000979587952A95D1F72091BC0024FF1CC008
:100DB0004091920350919303609194037091950335
:100DC000452B462B472B81F30097A105B10541F038
:100DD00025E32A95F1F700000197A109B109E4CFB5
:100DE000809191030C949E061092900308951F9297
:100DF0000F920FB60F9211242F933F934F935F934F
:100E00006F937F938F939F93AF93BF93EF93FF93D2
:100E10008091B900887F803609F49CC068F58832DB
:100E200009F45BC090F4803109F454C038F488238D
:100E300009F4F6C0883009F44DC0F6C0883109F4D1
:100E40004CC0803209F45DC0EFC0803409F468C042
:100E500048F4803309F455C0883309F0E5C0809325
:100E60008E03D8C0803509F44FC0883509F45DC0C1
:100E7000883409F0D9C0D6C0883909F4C7C0A8F4AD
:100E8000883709F467C038F4883609F463C08037BE
:100E900009F460C0C9C0883809F4B8C0803909F4C1
:100EA0005FC0803809F0C0C05BC0803B09F486C0D9
:100EB00038F4803A09F466C0883A09F47FC0B4C0B7
:100EC000803C09F4A7C0883C09F4A4C0883B09F41D
:100ED0008AC0AAC080916B0310C090918D0380914D
:100EE0008C03981770F5E0918D0381E08E0F80934D
:100EF0008D03F0E0E459FC4F80818093BB0085ECCA
:100F000086C080938E038EC0E0918D0381E08E0FAA
:100F100080938D038091BB00F0E0E459FC4F808307
:100F200090918D0380918C036EC0E0918D0381E0E0
:100F30008E0F80938D038091BB00F0E0E459FC4F4D
:100F4000808380918F0381116DC081E080936A035B
:100F500084EA61C083E08093900310926903CFCF4D
:100F600080916903803208F051C0E091690381E00B
:100F70008E0F809369038091BB00F0E0E75BFC4F2C
:100F80008083BDCF85EC8093BC001092900380914C
:100F90006903803230F4E0916903F0E0E75BFC4FD5
:100FA00010826091690370E0E091E002F091E1024B
:100FB00089E493E009951092690336C084E0809338
:100FC00090031092480310924703E091DE02F091E3
:100FD000DF02099580914703811105C081E080936C
:100FE000470310922703E091480381E08E0F80931E
:100FF0004803F0E0E95DFC4F80818093BB00909155
:10100000480380914703981708F479CF85E88093C7
:10101000BC000AC085EC8093BC001092900304C011
:1010200010928E030E94BF06FF91EF91BF91AF9186
:101030009F918F917F916F915F914F913F912F91F0
:101040000F900FBE0F901F9018953FB7F8948091A6
:10105000DA029091DB02A091DC02B091DD0226B5AC
:10106000A89B05C02F3F19F00196A11DB11D3FBFE0
:10107000BA2FA92F982F8827820F911DA11DB11D6E
:10108000BC01CD0142E0660F771F881F991F4A956A
:10109000D1F708958F929F92AF92BF92CF92DF9235
:1010A000EF92FF920F931F93CF93DF93109107035B
:1010B000113208F0C2C0D09106030E9425086B01CE
:1010C0007C01C0919003CC2311F180919203909107
:1010D0009303A0919403B0919503892B8A2B8B2BBA
:1010E00081F30E9425088090920390909303A09032
:1010F0009403B0909503DC01CB018C199D09AE09D6
:10110000BF0988169906AA06BB06D8F682C082E0F7
:101110008093900381E080938F038FEF80938E0301
:1011200010928D0310938C03A6E9B3E0ECE6F3E094
:1011300080E0181721F09D9191938F5FFACF109264
:101140006B0390916B038D2F880F892B80936B031A
:1011500080916A03813089F510926A030E94250804
:101160006B017C0180916B038093BB0080919203A3
:1011700090919303A0919403B0919503892B8A2BAE
:101180008B2BA9F00E9425080091920310919303E4
:101190002091940330919503DC01CB018C199D09BA
:1011A000AE09BF09081719072A073B0790F180917C
:1011B000BC0083FDD7CF85EC01C085EE8093BC00D9
:1011C0000E9425086B017C0180919003823039F5E3
:1011D0008091920390919303A0919403B091950311
:1011E000892B8A2B8B2B81F30E9425080091920377
:1011F000109193032091940330919503DC01CB016E
:101200008C199D09AE09BF09081719072A073B0762
:10121000D8F6809191030E949E06C5E013C080918C
:101220008E038F3F79F080918E03803241F0809160
:101230008E03803331F0C4E005C0C1E003C0C2E0DA
:1012400001C0C3E01092050310920703109204033B
:101250008C2FDF91CF911F910F91FF90EF90DF9036
:10126000CF90BF90AF909F908F9008958F929F9254
:10127000AF92BF92CF92DF92EF92FF920F931F93A4
:10128000CF93DF93F82ED62F613208F0BBC00E94B7
:1012900025084B015C01C0919003CC2331F1809172
:1012A000920390919303A0919403B0919503892B9D
:1012B0008A2B8B2B81F30E942508009192031091B9
:1012C00093032091940330919503DC01CB0188199D
:1012D0009909AA09BB09081719072A073B07D8F675
:1012E000809191030E949E068DC081E080939003BF
:1012F00080938F039FEF90938E0310928D039D0F29
:1013000090938C0380936B0390916B038F2D880FC8
:10131000892B80936B0380916A03813089F5109249
:101320006A030E9425086B017C0180916B03809306
:10133000BB008091920390919303A0919403B0918C
:101340009503892B8A2B8B2BA9F00E94250880906E
:10135000920390909303A0909403B0909503DC01C6
:10136000CB018C199D09AE09BF0988169906AA06FA
:10137000BB0690F18091BC0083FDD7CF85EC01C006
:1013800085EE8093BC000E9425086B017C01809152
:101390009003813031F58091920390919303A09155
:1013A0009403B0919503892B8A2B8B2B81F30E9498
:1013B00025088090920390909303A0909403B0909E
:1013C0009503DC01CB018C199D09AE09BF09881674
:1013D0009906AA06BB06D8F6809191030E949E0644
:1013E00012C080918D038D1710F4D0918D03ECE61F
:1013F000F3E0A4EEB2E0C0E0CD1729F081918D9327
:10140000CF5FFACFC0E08C2FDF91CF911F910F916A
:10141000FF90EF90DF90CF90BF90AF909F908F9014
:10142000089581E08093040388E680930603109278
:101430000503109207036FE088E093E00E94050522
:101440000E944A0861E088E60E9436091092E30291
:101450008093E20288E093E00E94BC040895CF9359
:10146000DF93CDB7DEB760970FB6F894DEBF0FBE3F
:10147000CDBF789484B5826084BD84B5816084BD1D
:1014800085B5826085BD85B5816085BD80916E0022
:10149000816080936E001092810080918100826053
:1014A0008093810080918100816080938100809190
:1014B00080008160809380008091B100846080937F
:1014C000B1008091B00081608093B00080917A007B
:1014D000846080937A0080917A00826080937A00A1
:1014E00080917A00816080937A0080917A00806890
:1014F00080937A001092C1001092E3021092E202EF
:1015000010920503109207030E9480068AEA94E075
:101510009093DF028093DE028BEA94E09093E102E5
:101520008093E00219821A821B821C829E012F5F27
:101530003F4F6901C9010E9456068AE08093160355
:1015400080915901811145C010924B0110924A01BE
:101550008FEF80934E0180934F01809350018093D1
:101560005101809352018093530181E08093540193
:10157000109256011092550110924D0110924C019B
:101580008091670190916801892B31F488E491E0A2
:101590009093680180936701E0914601F0914701C3
:1015A000309721F088E491E09583848388E491E08A
:1015B0009093470180934601109258011092570171
:1015C00084E191E0909349018093480181E0809308
:1015D0005901579A8DE691E090934B0180934A010F
:1015E00088E790E0909356018093550180911C0309
:1015F00090911D03A0911E03B0911F03843C39E01C
:101600009307A105B10520F484EC99E0A0E0B0E0D7
:1016100080931C0390931D03A0931E03B0931F039C
:1016200085E0809319030E94110A90E0880F892FAA
:10163000881F990BDE0115961D01892B09F4DCC06A
:101640004BE050E067E970E0C6010E94F30DCE0167
:101650000A960E94AD00082FE9814E2FEE0F550B20
:10166000660B770BFA01E154F109E331F10538F526
:10167000EC5CFF4F0C947C0E12E021C08A81813615
:1016800029F08B818E3621F017E019C011E017C0C8
:1016900016E015C08B81823711F018E010C014E0FD
:1016A0000EC08B81823711F015E009C013E007C02E
:1016B00019E005C01AE003C01BE001C01CE0C10135
:1016C0000E94AD00A82E48E050E06EE870E0C60130
:1016D0000E94F30DC6010E94AD00982ECE01049623
:1016E0000E94AD00882ECE0107960E94AD00782E94
:1016F000BB24B394B092040378E6E72EE09206038D
:10170000109205031092070360E088E093E00E94C6
:101710000505EAE0FE2E872D6F2D0E94260E682F0C
:10172000660F860F880F682F670D88E093E00E9490
:101730000505882D6F2D0E94260E682F660F860FD7
:10174000880F682F680D88E093E00E940505892DB9
:101750006F2D0E94260E682F660F860F880F682F48
:10176000690D88E093E00E94050560E088E093E061
:101770000E9405058A2D6F2D0E94260E682F660F88
:10178000860F880F682F6A0D88E093E00E94050598
:10179000812F6F2D0E94260E682F660F680F660F2F
:1017A000610F88E093E00E940505802F6F2D0E9455
:1017B000260E682F660F680F660F600F88E093E0B3
:1017C0000E9405050E944A080E94110A182FB09233
:1017D0000403E092060310920503109207036FE0E2
:1017E00088E093E00E940505612F6F7788E093E021
:1017F0000E9405050E944A086AEFA62E88248A9452
:10180000B1E0B0930403E8E6E09306031092050309
:101810001092070360E088E093E00E9405050E94B3
:101820004A0867E088E60E9436091092E302809336
:10183000E20288E093E00E94BC048F77982F929593
:101840009F70082F9A9D000D112488E093E00E945C
:10185000BC049C01332744E0359527954A95E1F770
:10186000182FA29E100D112488E093E00E94BC0462
:101870009C01332754E0359527955A95E1F7F82ECA
:10188000A29EF00C112488E093E00E94BC0488E042
:1018900093E00E94BC0488E093E00E94BC0488E0CE
:1018A00093E00E94BC04812F90E0F4E6FF9E800D3F
:1018B000911D1124F60191016AE070E00E94320E40
:1018C000DC01AE5DBE4F8C91D9018E939D01CB01A1
:1018D000CA16DB0689F780EE982F90782081922B2C
:1018E0009193880FE215F305B9F7C6010E945606D9
:1018F000802F65E00E94260E292F802F90E0211175
:1019000039C00023B9F1FC01EE0FFF1F8E0F9F1F9E
:10191000FC01E359FE4F808211821282B0901903BC
:1019200080911C0390911D03A0911E03B0911F0391
:10193000892B8A2B8B2B51F10E942508009169017C
:1019400010916A0120916B0130916C01DC01CB0197
:10195000801B910BA20BB30B00911C0310911D0374
:1019600020911E0330911F0380179107A207B30730
:10197000B8F20CC0FC01EE0FFF1F8E0F9F1FFC0181
:10198000E359FE4F108211828282C8CF0E9425083F
:101990006093690170936A0180936B0190936C016D
:1019A000E0912403F0912503309759F040912003F2
:1019B0005091210360912203709123038B2D09958F
:1019C000B82EE0906701F09068014B2C512C612CEF
:1019D000712CE114F10409F467C0F701F485FC8768
:1019E00080911A0390911B038436910518F4D70156
:1019F0001C961C92D701ED91FC91228133813E8788
:101A00002D8719821A821B82B1101AC009811A818E
:101A10002B81D7011D964D915C911E9712966D9169
:101A20007C911397C701ED85FE850995EC85D7015B
:101A30001C96EC931C971496ED90FC901597C9CFCB
:101A4000F701369686019701275F3F4F388B2F8726
:101A50002191222309F192809920F1F0822F90E0C8
:101A6000A0E0B0E09C01AD012F5F3F4F4F4F5F4FB3
:101A7000C301B2010E94160E9B01AC01892D90E0BA
:101A8000A0E0B0E0BC01CD016F5F7F4F8F4F9F4F53
:101A90000E94160ED8018C930F5F1F4F2F85388937
:101AA0002E173F07A9F6B2CF80916501909166018C
:101AB0009C012F5F3F4F309366012093650149974A
:101AC0000CF44CC08FB7F8944091D6025091D702D5
:101AD0006091D8027091D9028FBF8091610190917D
:101AE0006201A0916301B09164019A01AB01281BCE
:101AF000390B4A0B5B0B21F421E030E040E050E071
:101B00008091650190916601A8EEB3E08A9FB001D3
:101B10008B9F700D9A9F700D1124072E000C880B5F
:101B2000990B0E945A0E30931B0320931A031092B4
:101B30006601109265012FB7F8948091D6029091BA
:101B4000D702A091D802B091D9022FBF8093610132
:101B500090936201A0936301B0936401E0E0F0E030
:101B6000309709F44DCE099549CECF93DF93E8E045
:101B7000F3E01382128288EE93E0A0E0B0E0848369
:101B80009583A683B78386E391E091838083C4E144
:101B9000D3E082E0888383E0898384E690E09C83BD
:101BA0008B8360E082E00E94900560E089810E9462
:101BB000900560E088810E94610560E089810E9453
:101BC0006105E9E1F3E08FEF8083128211821486D0
:101BD00013868FEF9FEFDC0187839087A187B28701
:101BE000DF91CF910895FB01DC0102C005900D92B9
:101BF00041505040D8F708950E94070EA59F900DC0
:101C0000B49F900DA49F800D911D11240895A29F53
:101C1000B001B39FC001A39F700D811D1124911DC0
:101C2000B29F700D811D1124911D0895DB018F93CA
:101C30009F930E94FC0DBF91AF91A29F800D911DBB
:101C4000A39F900DB29F900D11240895991B79E0E8
:101C500004C0991F961708F0961B881F7A95C9F73C
:101C600080950895AA1BBB1B51E107C0AA1FBB1F8B
:101C7000A617B70710F0A61BB70B881F991F5A9518
:101C8000A9F780959095BC01CD01089597FB072E8B
:101C900016F4009407D077FD09D00E94320E07FC9D
:101CA00005D03EF4909581959F4F0895709561956C
:101CB0007F4F0895A1E21A2EAA1BBB1BFD010DC088
:101CC000AA1FBB1FEE1FFF1FA217B307E407F507EC
:101CD00020F0A21BB30BE40BF50B661F771F881FC8
:101CE000991F1A9469F760957095809590959B015E
:101CF000AC01BD01CF010895EE0FFF1F0590F491D7
:101D0000E02D09940E94070EB7FF0895821B930BE4
:101D1000089581E090E0F8940C948E0EF894FFCF33
:101D200000000000FD03FD03FD038201A301A701E4
:101D3000000000003F01FB00F9008201A301AA009E
:101D4000AA013F065B4F666D7D077F6F777C395E2A
:101D50007971000000000505D8043505AC04D004F5
:041D6000BC04AD040E
:00000001FF
